{
  "contractName": "VolcanoToken",
  "abi": [
    {
      "inputs": [],
      "stateMutability": "nonpayable",
      "type": "constructor"
    },
    {
      "anonymous": false,
      "inputs": [
        {
          "indexed": true,
          "internalType": "address",
          "name": "owner",
          "type": "address"
        },
        {
          "indexed": true,
          "internalType": "address",
          "name": "approved",
          "type": "address"
        },
        {
          "indexed": true,
          "internalType": "uint256",
          "name": "tokenId",
          "type": "uint256"
        }
      ],
      "name": "Approval",
      "type": "event"
    },
    {
      "anonymous": false,
      "inputs": [
        {
          "indexed": true,
          "internalType": "address",
          "name": "owner",
          "type": "address"
        },
        {
          "indexed": true,
          "internalType": "address",
          "name": "operator",
          "type": "address"
        },
        {
          "indexed": false,
          "internalType": "bool",
          "name": "approved",
          "type": "bool"
        }
      ],
      "name": "ApprovalForAll",
      "type": "event"
    },
    {
      "anonymous": false,
      "inputs": [
        {
          "indexed": true,
          "internalType": "address",
          "name": "previousOwner",
          "type": "address"
        },
        {
          "indexed": true,
          "internalType": "address",
          "name": "newOwner",
          "type": "address"
        }
      ],
      "name": "OwnershipTransferred",
      "type": "event"
    },
    {
      "anonymous": false,
      "inputs": [
        {
          "indexed": true,
          "internalType": "address",
          "name": "from",
          "type": "address"
        },
        {
          "indexed": true,
          "internalType": "address",
          "name": "to",
          "type": "address"
        },
        {
          "indexed": true,
          "internalType": "uint256",
          "name": "tokenId",
          "type": "uint256"
        }
      ],
      "name": "Transfer",
      "type": "event"
    },
    {
      "inputs": [
        {
          "internalType": "address",
          "name": "to",
          "type": "address"
        },
        {
          "internalType": "uint256",
          "name": "tokenId",
          "type": "uint256"
        }
      ],
      "name": "approve",
      "outputs": [],
      "stateMutability": "nonpayable",
      "type": "function"
    },
    {
      "inputs": [
        {
          "internalType": "address",
          "name": "owner",
          "type": "address"
        }
      ],
      "name": "balanceOf",
      "outputs": [
        {
          "internalType": "uint256",
          "name": "",
          "type": "uint256"
        }
      ],
      "stateMutability": "view",
      "type": "function",
      "constant": true
    },
    {
      "inputs": [
        {
          "internalType": "uint256",
          "name": "tokenId",
          "type": "uint256"
        }
      ],
      "name": "getApproved",
      "outputs": [
        {
          "internalType": "address",
          "name": "",
          "type": "address"
        }
      ],
      "stateMutability": "view",
      "type": "function",
      "constant": true
    },
    {
      "inputs": [
        {
          "internalType": "address",
          "name": "owner",
          "type": "address"
        },
        {
          "internalType": "address",
          "name": "operator",
          "type": "address"
        }
      ],
      "name": "isApprovedForAll",
      "outputs": [
        {
          "internalType": "bool",
          "name": "",
          "type": "bool"
        }
      ],
      "stateMutability": "view",
      "type": "function",
      "constant": true
    },
    {
      "inputs": [],
      "name": "name",
      "outputs": [
        {
          "internalType": "string",
          "name": "",
          "type": "string"
        }
      ],
      "stateMutability": "view",
      "type": "function",
      "constant": true
    },
    {
      "inputs": [],
      "name": "owner",
      "outputs": [
        {
          "internalType": "address",
          "name": "",
          "type": "address"
        }
      ],
      "stateMutability": "view",
      "type": "function",
      "constant": true
    },
    {
      "inputs": [
        {
          "internalType": "uint256",
          "name": "tokenId",
          "type": "uint256"
        }
      ],
      "name": "ownerOf",
      "outputs": [
        {
          "internalType": "address",
          "name": "",
          "type": "address"
        }
      ],
      "stateMutability": "view",
      "type": "function",
      "constant": true
    },
    {
      "inputs": [],
      "name": "renounceOwnership",
      "outputs": [],
      "stateMutability": "nonpayable",
      "type": "function"
    },
    {
      "inputs": [
        {
          "internalType": "address",
          "name": "from",
          "type": "address"
        },
        {
          "internalType": "address",
          "name": "to",
          "type": "address"
        },
        {
          "internalType": "uint256",
          "name": "tokenId",
          "type": "uint256"
        }
      ],
      "name": "safeTransferFrom",
      "outputs": [],
      "stateMutability": "nonpayable",
      "type": "function"
    },
    {
      "inputs": [
        {
          "internalType": "address",
          "name": "from",
          "type": "address"
        },
        {
          "internalType": "address",
          "name": "to",
          "type": "address"
        },
        {
          "internalType": "uint256",
          "name": "tokenId",
          "type": "uint256"
        },
        {
          "internalType": "bytes",
          "name": "_data",
          "type": "bytes"
        }
      ],
      "name": "safeTransferFrom",
      "outputs": [],
      "stateMutability": "nonpayable",
      "type": "function"
    },
    {
      "inputs": [
        {
          "internalType": "address",
          "name": "operator",
          "type": "address"
        },
        {
          "internalType": "bool",
          "name": "approved",
          "type": "bool"
        }
      ],
      "name": "setApprovalForAll",
      "outputs": [],
      "stateMutability": "nonpayable",
      "type": "function"
    },
    {
      "inputs": [
        {
          "internalType": "bytes4",
          "name": "interfaceId",
          "type": "bytes4"
        }
      ],
      "name": "supportsInterface",
      "outputs": [
        {
          "internalType": "bool",
          "name": "",
          "type": "bool"
        }
      ],
      "stateMutability": "view",
      "type": "function",
      "constant": true
    },
    {
      "inputs": [],
      "name": "symbol",
      "outputs": [
        {
          "internalType": "string",
          "name": "",
          "type": "string"
        }
      ],
      "stateMutability": "view",
      "type": "function",
      "constant": true
    },
    {
      "inputs": [
        {
          "internalType": "address",
          "name": "",
          "type": "address"
        },
        {
          "internalType": "uint256",
          "name": "",
          "type": "uint256"
        }
      ],
      "name": "tokenOwnership",
      "outputs": [
        {
          "internalType": "uint256",
          "name": "tokenId",
          "type": "uint256"
        },
        {
          "internalType": "uint256",
          "name": "timestamp",
          "type": "uint256"
        },
        {
          "internalType": "string",
          "name": "tokenURI",
          "type": "string"
        }
      ],
      "stateMutability": "view",
      "type": "function",
      "constant": true
    },
    {
      "inputs": [
        {
          "internalType": "uint256",
          "name": "tokenId",
          "type": "uint256"
        }
      ],
      "name": "tokenURI",
      "outputs": [
        {
          "internalType": "string",
          "name": "",
          "type": "string"
        }
      ],
      "stateMutability": "view",
      "type": "function",
      "constant": true
    },
    {
      "inputs": [
        {
          "internalType": "address",
          "name": "from",
          "type": "address"
        },
        {
          "internalType": "address",
          "name": "to",
          "type": "address"
        },
        {
          "internalType": "uint256",
          "name": "tokenId",
          "type": "uint256"
        }
      ],
      "name": "transferFrom",
      "outputs": [],
      "stateMutability": "nonpayable",
      "type": "function"
    },
    {
      "inputs": [
        {
          "internalType": "address",
          "name": "newOwner",
          "type": "address"
        }
      ],
      "name": "transferOwnership",
      "outputs": [],
      "stateMutability": "nonpayable",
      "type": "function"
    },
    {
      "inputs": [
        {
          "internalType": "address",
          "name": "to",
          "type": "address"
        },
        {
          "internalType": "uint256",
          "name": "tokenId",
          "type": "uint256"
        }
      ],
      "name": "mintToken",
      "outputs": [],
      "stateMutability": "nonpayable",
      "type": "function"
    },
    {
      "inputs": [
        {
          "internalType": "uint256",
          "name": "tokenId",
          "type": "uint256"
        }
      ],
      "name": "burnToken",
      "outputs": [],
      "stateMutability": "nonpayable",
      "type": "function"
    }
  ],
  "bytecode": "0x608060405260006007553480156200001657600080fd5b506040518060400160405280600c81526020017f566f6c63616e6f546f6b656e00000000000000000000000000000000000000008152506040518060400160405280600381526020017f564b54000000000000000000000000000000000000000000000000000000000081525081600090805190602001906200009b929190620001ab565b508060019080519060200190620000b4929190620001ab565b505050620000d7620000cb620000dd60201b60201c565b620000e560201b60201c565b620002c0565b600033905090565b6000600660009054906101000a900473ffffffffffffffffffffffffffffffffffffffff16905081600660006101000a81548173ffffffffffffffffffffffffffffffffffffffff021916908373ffffffffffffffffffffffffffffffffffffffff1602179055508173ffffffffffffffffffffffffffffffffffffffff168173ffffffffffffffffffffffffffffffffffffffff167f8be0079c531659141344cd1fd0a4f28419497f9722a3daafe3b4186f6b6457e060405160405180910390a35050565b828054620001b9906200025b565b90600052602060002090601f016020900481019282620001dd576000855562000229565b82601f10620001f857805160ff191683800117855562000229565b8280016001018555821562000229579182015b82811115620002285782518255916020019190600101906200020b565b5b5090506200023891906200023c565b5090565b5b80821115620002575760008160009055506001016200023d565b5090565b600060028204905060018216806200027457607f821691505b602082108114156200028b576200028a62000291565b5b50919050565b7f4e487b7100000000000000000000000000000000000000000000000000000000600052602260045260246000fd5b612f9680620002d06000396000f3fe608060405234801561001057600080fd5b50600436106101215760003560e01c806379c65068116100ad578063a22cb46511610071578063a22cb46514610308578063b88d4fde14610324578063c87b56dd14610340578063e985e9c514610370578063f2fde38b146103a057610121565b806379c65068146102625780637b47ec1a1461027e5780638da5cb5b1461029a57806395d89b41146102b857806395e6ba04146102d657610121565b806323b872dd116100f457806323b872dd146101c057806342842e0e146101dc5780636352211e146101f857806370a0823114610228578063715018a61461025857610121565b806301ffc9a71461012657806306fdde0314610156578063081812fc14610174578063095ea7b3146101a4575b600080fd5b610140600480360381019061013b9190611fca565b6103bc565b60405161014d91906123f3565b60405180910390f35b61015e61049e565b60405161016b919061240e565b60405180910390f35b61018e6004803603810190610189919061201c565b610530565b60405161019b919061238c565b60405180910390f35b6101be60048036038101906101b99190611f8e565b6105b5565b005b6101da60048036038101906101d59190611e88565b6106cd565b005b6101f660048036038101906101f19190611e88565b61072d565b005b610212600480360381019061020d919061201c565b61074d565b60405161021f919061238c565b60405180910390f35b610242600480360381019061023d9190611e23565b6107ff565b60405161024f9190612650565b60405180910390f35b6102606108b7565b005b61027c60048036038101906102779190611f8e565b61093f565b005b6102986004803603810190610293919061201c565b610a47565b005b6102a2610ac9565b6040516102af919061238c565b60405180910390f35b6102c0610af3565b6040516102cd919061240e565b60405180910390f35b6102f060048036038101906102eb9190611f8e565b610b85565b6040516102ff9392919061266b565b60405180910390f35b610322600480360381019061031d9190611f52565b610c54565b005b61033e60048036038101906103399190611ed7565b610dd5565b005b61035a6004803603810190610355919061201c565b610e37565b604051610367919061240e565b60405180910390f35b61038a60048036038101906103859190611e4c565b610ede565b60405161039791906123f3565b60405180910390f35b6103ba60048036038101906103b59190611e23565b610f72565b005b60007f80ac58cd000000000000000000000000000000000000000000000000000000007bffffffffffffffffffffffffffffffffffffffffffffffffffffffff1916827bffffffffffffffffffffffffffffffffffffffffffffffffffffffff1916148061048757507f5b5e139f000000000000000000000000000000000000000000000000000000007bffffffffffffffffffffffffffffffffffffffffffffffffffffffff1916827bffffffffffffffffffffffffffffffffffffffffffffffffffffffff1916145b8061049757506104968261106a565b5b9050919050565b6060600080546104ad906128b3565b80601f01602080910402602001604051908101604052809291908181526020018280546104d9906128b3565b80156105265780601f106104fb57610100808354040283529160200191610526565b820191906000526020600020905b81548152906001019060200180831161050957829003601f168201915b5050505050905090565b600061053b826110d4565b61057a576040517f08c379a000000000000000000000000000000000000000000000000000000000815260040161057190612590565b60405180910390fd5b6004600083815260200190815260200160002060009054906101000a900473ffffffffffffffffffffffffffffffffffffffff169050919050565b60006105c08261074d565b90508073ffffffffffffffffffffffffffffffffffffffff168373ffffffffffffffffffffffffffffffffffffffff161415610631576040517f08c379a000000000000000000000000000000000000000000000000000000000815260040161062890612610565b60405180910390fd5b8073ffffffffffffffffffffffffffffffffffffffff16610650611140565b73ffffffffffffffffffffffffffffffffffffffff16148061067f575061067e81610679611140565b610ede565b5b6106be576040517f08c379a00000000000000000000000000000000000000000000000000000000081526004016106b5906124f0565b60405180910390fd5b6106c88383611148565b505050565b6106de6106d8611140565b82611201565b61071d576040517f08c379a000000000000000000000000000000000000000000000000000000000815260040161071490612630565b60405180910390fd5b6107288383836112df565b505050565b61074883838360405180602001604052806000815250610dd5565b505050565b6000806002600084815260200190815260200160002060009054906101000a900473ffffffffffffffffffffffffffffffffffffffff169050600073ffffffffffffffffffffffffffffffffffffffff168173ffffffffffffffffffffffffffffffffffffffff1614156107f6576040517f08c379a00000000000000000000000000000000000000000000000000000000081526004016107ed90612530565b60405180910390fd5b80915050919050565b60008073ffffffffffffffffffffffffffffffffffffffff168273ffffffffffffffffffffffffffffffffffffffff161415610870576040517f08c379a000000000000000000000000000000000000000000000000000000000815260040161086790612510565b60405180910390fd5b600360008373ffffffffffffffffffffffffffffffffffffffff1673ffffffffffffffffffffffffffffffffffffffff168152602001908152602001600020549050919050565b6108bf611140565b73ffffffffffffffffffffffffffffffffffffffff166108dd610ac9565b73ffffffffffffffffffffffffffffffffffffffff1614610933576040517f08c379a000000000000000000000000000000000000000000000000000000000815260040161092a906125b0565b60405180910390fd5b61093d600061153b565b565b6109498282611601565b600860008373ffffffffffffffffffffffffffffffffffffffff1673ffffffffffffffffffffffffffffffffffffffff16815260200190815260200160002060405180606001604052808381526020014281526020016040518060400160405280601081526020017f687474703a2f2f6e6577546f6b656e3100000000000000000000000000000000815250815250908060018154018082558091505060019003906000526020600020906003020160009091909190915060008201518160000155602082015181600101556040820151816002019080519060200190610a31929190611caf565b505050600181610a419190612742565b90505050565b610a508161074d565b73ffffffffffffffffffffffffffffffffffffffff163373ffffffffffffffffffffffffffffffffffffffff1614610abd576040517f08c379a0000000000000000000000000000000000000000000000000000000008152600401610ab490612570565b60405180910390fd5b610ac6816117cf565b50565b6000600660009054906101000a900473ffffffffffffffffffffffffffffffffffffffff16905090565b606060018054610b02906128b3565b80601f0160208091040260200160405190810160405280929190818152602001828054610b2e906128b3565b8015610b7b5780601f10610b5057610100808354040283529160200191610b7b565b820191906000526020600020905b815481529060010190602001808311610b5e57829003601f168201915b5050505050905090565b60086020528160005260406000208181548110610ba157600080fd5b906000526020600020906003020160009150915050806000015490806001015490806002018054610bd1906128b3565b80601f0160208091040260200160405190810160405280929190818152602001828054610bfd906128b3565b8015610c4a5780601f10610c1f57610100808354040283529160200191610c4a565b820191906000526020600020905b815481529060010190602001808311610c2d57829003601f168201915b5050505050905083565b610c5c611140565b73ffffffffffffffffffffffffffffffffffffffff168273ffffffffffffffffffffffffffffffffffffffff161415610cca576040517f08c379a0000000000000000000000000000000000000000000000000000000008152600401610cc1906124b0565b60405180910390fd5b8060056000610cd7611140565b73ffffffffffffffffffffffffffffffffffffffff1673ffffffffffffffffffffffffffffffffffffffff16815260200190815260200160002060008473ffffffffffffffffffffffffffffffffffffffff1673ffffffffffffffffffffffffffffffffffffffff16815260200190815260200160002060006101000a81548160ff0219169083151502179055508173ffffffffffffffffffffffffffffffffffffffff16610d84611140565b73ffffffffffffffffffffffffffffffffffffffff167f17307eab39ab6107e8899845ad3d59bd9653f200f220920489ca2b5937696c3183604051610dc991906123f3565b60405180910390a35050565b610de6610de0611140565b83611201565b610e25576040517f08c379a0000000000000000000000000000000000000000000000000000000008152600401610e1c90612630565b60405180910390fd5b610e31848484846118e0565b50505050565b6060610e42826110d4565b610e81576040517f08c379a0000000000000000000000000000000000000000000000000000000008152600401610e78906125f0565b60405180910390fd5b6000610e8b61193c565b90506000815111610eab5760405180602001604052806000815250610ed6565b80610eb584611953565b604051602001610ec6929190612368565b6040516020818303038152906040525b915050919050565b6000600560008473ffffffffffffffffffffffffffffffffffffffff1673ffffffffffffffffffffffffffffffffffffffff16815260200190815260200160002060008373ffffffffffffffffffffffffffffffffffffffff1673ffffffffffffffffffffffffffffffffffffffff16815260200190815260200160002060009054906101000a900460ff16905092915050565b610f7a611140565b73ffffffffffffffffffffffffffffffffffffffff16610f98610ac9565b73ffffffffffffffffffffffffffffffffffffffff1614610fee576040517f08c379a0000000000000000000000000000000000000000000000000000000008152600401610fe5906125b0565b60405180910390fd5b600073ffffffffffffffffffffffffffffffffffffffff168173ffffffffffffffffffffffffffffffffffffffff16141561105e576040517f08c379a000000000000000000000000000000000000000000000000000000000815260040161105590612450565b60405180910390fd5b6110678161153b565b50565b60007f01ffc9a7000000000000000000000000000000000000000000000000000000007bffffffffffffffffffffffffffffffffffffffffffffffffffffffff1916827bffffffffffffffffffffffffffffffffffffffffffffffffffffffff1916149050919050565b60008073ffffffffffffffffffffffffffffffffffffffff166002600084815260200190815260200160002060009054906101000a900473ffffffffffffffffffffffffffffffffffffffff1673ffffffffffffffffffffffffffffffffffffffff1614159050919050565b600033905090565b816004600083815260200190815260200160002060006101000a81548173ffffffffffffffffffffffffffffffffffffffff021916908373ffffffffffffffffffffffffffffffffffffffff160217905550808273ffffffffffffffffffffffffffffffffffffffff166111bb8361074d565b73ffffffffffffffffffffffffffffffffffffffff167f8c5be1e5ebec7d5bd14f71427d1e84f3dd0314c0f7b2291e5b200ac8c7c3b92560405160405180910390a45050565b600061120c826110d4565b61124b576040517f08c379a0000000000000000000000000000000000000000000000000000000008152600401611242906124d0565b60405180910390fd5b60006112568361074d565b90508073ffffffffffffffffffffffffffffffffffffffff168473ffffffffffffffffffffffffffffffffffffffff1614806112c557508373ffffffffffffffffffffffffffffffffffffffff166112ad84610530565b73ffffffffffffffffffffffffffffffffffffffff16145b806112d657506112d58185610ede565b5b91505092915050565b8273ffffffffffffffffffffffffffffffffffffffff166112ff8261074d565b73ffffffffffffffffffffffffffffffffffffffff1614611355576040517f08c379a000000000000000000000000000000000000000000000000000000000815260040161134c906125d0565b60405180910390fd5b600073ffffffffffffffffffffffffffffffffffffffff168273ffffffffffffffffffffffffffffffffffffffff1614156113c5576040517f08c379a00000000000000000000000000000000000000000000000000000000081526004016113bc90612490565b60405180910390fd5b6113d0838383611b00565b6113db600082611148565b6001600360008573ffffffffffffffffffffffffffffffffffffffff1673ffffffffffffffffffffffffffffffffffffffff168152602001908152602001600020600082825461142b91906127c9565b925050819055506001600360008473ffffffffffffffffffffffffffffffffffffffff1673ffffffffffffffffffffffffffffffffffffffff16815260200190815260200160002060008282546114829190612742565b92505081905550816002600083815260200190815260200160002060006101000a81548173ffffffffffffffffffffffffffffffffffffffff021916908373ffffffffffffffffffffffffffffffffffffffff160217905550808273ffffffffffffffffffffffffffffffffffffffff168473ffffffffffffffffffffffffffffffffffffffff167fddf252ad1be2c89b69c2b068fc378daa952ba7f163c4a11628f55a4df523b3ef60405160405180910390a4505050565b6000600660009054906101000a900473ffffffffffffffffffffffffffffffffffffffff16905081600660006101000a81548173ffffffffffffffffffffffffffffffffffffffff021916908373ffffffffffffffffffffffffffffffffffffffff1602179055508173ffffffffffffffffffffffffffffffffffffffff168173ffffffffffffffffffffffffffffffffffffffff167f8be0079c531659141344cd1fd0a4f28419497f9722a3daafe3b4186f6b6457e060405160405180910390a35050565b600073ffffffffffffffffffffffffffffffffffffffff168273ffffffffffffffffffffffffffffffffffffffff161415611671576040517f08c379a000000000000000000000000000000000000000000000000000000000815260040161166890612550565b60405180910390fd5b61167a816110d4565b156116ba576040517f08c379a00000000000000000000000000000000000000000000000000000000081526004016116b190612470565b60405180910390fd5b6116c660008383611b00565b6001600360008473ffffffffffffffffffffffffffffffffffffffff1673ffffffffffffffffffffffffffffffffffffffff16815260200190815260200160002060008282546117169190612742565b92505081905550816002600083815260200190815260200160002060006101000a81548173ffffffffffffffffffffffffffffffffffffffff021916908373ffffffffffffffffffffffffffffffffffffffff160217905550808273ffffffffffffffffffffffffffffffffffffffff16600073ffffffffffffffffffffffffffffffffffffffff167fddf252ad1be2c89b69c2b068fc378daa952ba7f163c4a11628f55a4df523b3ef60405160405180910390a45050565b60006117da8261074d565b90506117e881600084611b00565b6117f3600083611148565b6001600360008373ffffffffffffffffffffffffffffffffffffffff1673ffffffffffffffffffffffffffffffffffffffff168152602001908152602001600020600082825461184391906127c9565b925050819055506002600083815260200190815260200160002060006101000a81549073ffffffffffffffffffffffffffffffffffffffff021916905581600073ffffffffffffffffffffffffffffffffffffffff168273ffffffffffffffffffffffffffffffffffffffff167fddf252ad1be2c89b69c2b068fc378daa952ba7f163c4a11628f55a4df523b3ef60405160405180910390a45050565b6118eb8484846112df565b6118f784848484611b05565b611936576040517f08c379a000000000000000000000000000000000000000000000000000000000815260040161192d90612430565b60405180910390fd5b50505050565b606060405180602001604052806000815250905090565b6060600082141561199b576040518060400160405280600181526020017f30000000000000000000000000000000000000000000000000000000000000008152509050611afb565b600082905060005b600082146119cd5780806119b690612916565b915050600a826119c69190612798565b91506119a3565b60008167ffffffffffffffff811115611a0f577f4e487b7100000000000000000000000000000000000000000000000000000000600052604160045260246000fd5b6040519080825280601f01601f191660200182016040528015611a415781602001600182028036833780820191505090505b5090505b60008514611af457600182611a5a91906127c9565b9150600a85611a69919061295f565b6030611a759190612742565b60f81b818381518110611ab1577f4e487b7100000000000000000000000000000000000000000000000000000000600052603260045260246000fd5b60200101907effffffffffffffffffffffffffffffffffffffffffffffffffffffffffffff1916908160001a905350600a85611aed9190612798565b9450611a45565b8093505050505b919050565b505050565b6000611b268473ffffffffffffffffffffffffffffffffffffffff16611c9c565b15611c8f578373ffffffffffffffffffffffffffffffffffffffff1663150b7a02611b4f611140565b8786866040518563ffffffff1660e01b8152600401611b7194939291906123a7565b602060405180830381600087803b158015611b8b57600080fd5b505af1925050508015611bbc57506040513d601f19601f82011682018060405250810190611bb99190611ff3565b60015b611c3f573d8060008114611bec576040519150601f19603f3d011682016040523d82523d6000602084013e611bf1565b606091505b50600081511415611c37576040517f08c379a0000000000000000000000000000000000000000000000000000000008152600401611c2e90612430565b60405180910390fd5b805181602001fd5b63150b7a0260e01b7bffffffffffffffffffffffffffffffffffffffffffffffffffffffff1916817bffffffffffffffffffffffffffffffffffffffffffffffffffffffff191614915050611c94565b600190505b949350505050565b600080823b905060008111915050919050565b828054611cbb906128b3565b90600052602060002090601f016020900481019282611cdd5760008555611d24565b82601f10611cf657805160ff1916838001178555611d24565b82800160010185558215611d24579182015b82811115611d23578251825591602001919060010190611d08565b5b509050611d319190611d35565b5090565b5b80821115611d4e576000816000905550600101611d36565b5090565b6000611d65611d60846126ce565b6126a9565b905082815260208101848484011115611d7d57600080fd5b611d88848285612871565b509392505050565b600081359050611d9f81612f04565b92915050565b600081359050611db481612f1b565b92915050565b600081359050611dc981612f32565b92915050565b600081519050611dde81612f32565b92915050565b600082601f830112611df557600080fd5b8135611e05848260208601611d52565b91505092915050565b600081359050611e1d81612f49565b92915050565b600060208284031215611e3557600080fd5b6000611e4384828501611d90565b91505092915050565b60008060408385031215611e5f57600080fd5b6000611e6d85828601611d90565b9250506020611e7e85828601611d90565b9150509250929050565b600080600060608486031215611e9d57600080fd5b6000611eab86828701611d90565b9350506020611ebc86828701611d90565b9250506040611ecd86828701611e0e565b9150509250925092565b60008060008060808587031215611eed57600080fd5b6000611efb87828801611d90565b9450506020611f0c87828801611d90565b9350506040611f1d87828801611e0e565b925050606085013567ffffffffffffffff811115611f3a57600080fd5b611f4687828801611de4565b91505092959194509250565b60008060408385031215611f6557600080fd5b6000611f7385828601611d90565b9250506020611f8485828601611da5565b9150509250929050565b60008060408385031215611fa157600080fd5b6000611faf85828601611d90565b9250506020611fc085828601611e0e565b9150509250929050565b600060208284031215611fdc57600080fd5b6000611fea84828501611dba565b91505092915050565b60006020828403121561200557600080fd5b600061201384828501611dcf565b91505092915050565b60006020828403121561202e57600080fd5b600061203c84828501611e0e565b91505092915050565b61204e816127fd565b82525050565b61205d8161280f565b82525050565b600061206e826126ff565b6120788185612715565b9350612088818560208601612880565b61209181612a4c565b840191505092915050565b60006120a78261270a565b6120b18185612726565b93506120c1818560208601612880565b6120ca81612a4c565b840191505092915050565b60006120e08261270a565b6120ea8185612737565b93506120fa818560208601612880565b80840191505092915050565b6000612113603283612726565b915061211e82612a5d565b604082019050919050565b6000612136602683612726565b915061214182612aac565b604082019050919050565b6000612159601c83612726565b915061216482612afb565b602082019050919050565b600061217c602483612726565b915061218782612b24565b604082019050919050565b600061219f601983612726565b91506121aa82612b73565b602082019050919050565b60006121c2602c83612726565b91506121cd82612b9c565b604082019050919050565b60006121e5603883612726565b91506121f082612beb565b604082019050919050565b6000612208602a83612726565b915061221382612c3a565b604082019050919050565b600061222b602983612726565b915061223682612c89565b604082019050919050565b600061224e602083612726565b915061225982612cd8565b602082019050919050565b6000612271602e83612726565b915061227c82612d01565b604082019050919050565b6000612294602c83612726565b915061229f82612d50565b604082019050919050565b60006122b7602083612726565b91506122c282612d9f565b602082019050919050565b60006122da602983612726565b91506122e582612dc8565b604082019050919050565b60006122fd602f83612726565b915061230882612e17565b604082019050919050565b6000612320602183612726565b915061232b82612e66565b604082019050919050565b6000612343603183612726565b915061234e82612eb5565b604082019050919050565b61236281612867565b82525050565b600061237482856120d5565b915061238082846120d5565b91508190509392505050565b60006020820190506123a16000830184612045565b92915050565b60006080820190506123bc6000830187612045565b6123c96020830186612045565b6123d66040830185612359565b81810360608301526123e88184612063565b905095945050505050565b60006020820190506124086000830184612054565b92915050565b60006020820190508181036000830152612428818461209c565b905092915050565b6000602082019050818103600083015261244981612106565b9050919050565b6000602082019050818103600083015261246981612129565b9050919050565b600060208201905081810360008301526124898161214c565b9050919050565b600060208201905081810360008301526124a98161216f565b9050919050565b600060208201905081810360008301526124c981612192565b9050919050565b600060208201905081810360008301526124e9816121b5565b9050919050565b60006020820190508181036000830152612509816121d8565b9050919050565b60006020820190508181036000830152612529816121fb565b9050919050565b600060208201905081810360008301526125498161221e565b9050919050565b6000602082019050818103600083015261256981612241565b9050919050565b6000602082019050818103600083015261258981612264565b9050919050565b600060208201905081810360008301526125a981612287565b9050919050565b600060208201905081810360008301526125c9816122aa565b9050919050565b600060208201905081810360008301526125e9816122cd565b9050919050565b60006020820190508181036000830152612609816122f0565b9050919050565b6000602082019050818103600083015261262981612313565b9050919050565b6000602082019050818103600083015261264981612336565b9050919050565b60006020820190506126656000830184612359565b92915050565b60006060820190506126806000830186612359565b61268d6020830185612359565b818103604083015261269f818461209c565b9050949350505050565b60006126b36126c4565b90506126bf82826128e5565b919050565b6000604051905090565b600067ffffffffffffffff8211156126e9576126e8612a1d565b5b6126f282612a4c565b9050602081019050919050565b600081519050919050565b600081519050919050565b600082825260208201905092915050565b600082825260208201905092915050565b600081905092915050565b600061274d82612867565b915061275883612867565b9250827fffffffffffffffffffffffffffffffffffffffffffffffffffffffffffffffff0382111561278d5761278c612990565b5b828201905092915050565b60006127a382612867565b91506127ae83612867565b9250826127be576127bd6129bf565b5b828204905092915050565b60006127d482612867565b91506127df83612867565b9250828210156127f2576127f1612990565b5b828203905092915050565b600061280882612847565b9050919050565b60008115159050919050565b60007fffffffff0000000000000000000000000000000000000000000000000000000082169050919050565b600073ffffffffffffffffffffffffffffffffffffffff82169050919050565b6000819050919050565b82818337600083830152505050565b60005b8381101561289e578082015181840152602081019050612883565b838111156128ad576000848401525b50505050565b600060028204905060018216806128cb57607f821691505b602082108114156128df576128de6129ee565b5b50919050565b6128ee82612a4c565b810181811067ffffffffffffffff8211171561290d5761290c612a1d565b5b80604052505050565b600061292182612867565b91507fffffffffffffffffffffffffffffffffffffffffffffffffffffffffffffffff82141561295457612953612990565b5b600182019050919050565b600061296a82612867565b915061297583612867565b925082612985576129846129bf565b5b828206905092915050565b7f4e487b7100000000000000000000000000000000000000000000000000000000600052601160045260246000fd5b7f4e487b7100000000000000000000000000000000000000000000000000000000600052601260045260246000fd5b7f4e487b7100000000000000000000000000000000000000000000000000000000600052602260045260246000fd5b7f4e487b7100000000000000000000000000000000000000000000000000000000600052604160045260246000fd5b6000601f19601f8301169050919050565b7f4552433732313a207472616e7366657220746f206e6f6e20455243373231526560008201527f63656976657220696d706c656d656e7465720000000000000000000000000000602082015250565b7f4f776e61626c653a206e6577206f776e657220697320746865207a65726f206160008201527f6464726573730000000000000000000000000000000000000000000000000000602082015250565b7f4552433732313a20746f6b656e20616c7265616479206d696e74656400000000600082015250565b7f4552433732313a207472616e7366657220746f20746865207a65726f2061646460008201527f7265737300000000000000000000000000000000000000000000000000000000602082015250565b7f4552433732313a20617070726f766520746f2063616c6c657200000000000000600082015250565b7f4552433732313a206f70657261746f7220717565727920666f72206e6f6e657860008201527f697374656e7420746f6b656e0000000000000000000000000000000000000000602082015250565b7f4552433732313a20617070726f76652063616c6c6572206973206e6f74206f7760008201527f6e6572206e6f7220617070726f76656420666f7220616c6c0000000000000000602082015250565b7f4552433732313a2062616c616e636520717565727920666f7220746865207a6560008201527f726f206164647265737300000000000000000000000000000000000000000000602082015250565b7f4552433732313a206f776e657220717565727920666f72206e6f6e657869737460008201527f656e7420746f6b656e0000000000000000000000000000000000000000000000602082015250565b7f4552433732313a206d696e7420746f20746865207a65726f2061646472657373600082015250565b7f596f7520646f206e6f74206f776e207468697320746f6b656e2e20596f75277260008201527f6520756e617574686f72697a6564000000000000000000000000000000000000602082015250565b7f4552433732313a20617070726f76656420717565727920666f72206e6f6e657860008201527f697374656e7420746f6b656e0000000000000000000000000000000000000000602082015250565b7f4f776e61626c653a2063616c6c6572206973206e6f7420746865206f776e6572600082015250565b7f4552433732313a207472616e73666572206f6620746f6b656e2074686174206960008201527f73206e6f74206f776e0000000000000000000000000000000000000000000000602082015250565b7f4552433732314d657461646174613a2055524920717565727920666f72206e6f60008201527f6e6578697374656e7420746f6b656e0000000000000000000000000000000000602082015250565b7f4552433732313a20617070726f76616c20746f2063757272656e74206f776e6560008201527f7200000000000000000000000000000000000000000000000000000000000000602082015250565b7f4552433732313a207472616e736665722063616c6c6572206973206e6f74206f60008201527f776e6572206e6f7220617070726f766564000000000000000000000000000000602082015250565b612f0d816127fd565b8114612f1857600080fd5b50565b612f248161280f565b8114612f2f57600080fd5b50565b612f3b8161281b565b8114612f4657600080fd5b50565b612f5281612867565b8114612f5d57600080fd5b5056fea26469706673582212205cd9cf642f2971cea2817450afba2eceefea530d86cf51dc28baa58b548ed88564736f6c63430008040033",
  "immutableReferences": {},
  "source": "// SPDX-License-Identifier: MIT\n\npragma solidity >=0.4.22 <0.9.0;\n\nimport \"@openzeppelin/contracts/token/ERC721/ERC721.sol\";\nimport \"@openzeppelin/contracts/access/Ownable.sol\";\n\ncontract VolcanoToken is ERC721, Ownable {\n     \n    uint256 tokenId = 0;\n    \n    struct TokenMetaData {\n        uint256 tokenId;\n        uint timestamp;\n        string tokenURI;\n    }\n    \n    mapping(address => TokenMetaData[]) public tokenOwnership;\n    \n    constructor() ERC721(\"VolcanoToken\", \"VKT\") {\n        \n    }\n    \n    function mintToken(address to, uint256 tokenId) public {\n        _mint(to, tokenId);\n         tokenOwnership[to].push(TokenMetaData(tokenId, block.timestamp, \"http://newToken1\"));\n         tokenId += 1;\n    }\n\n    function burnToken(uint256 tokenId) public {\n        require(msg.sender == ownerOf(tokenId), \"You do not own this token. You're unauthorized\");\n        _burn(tokenId);\n    }\n}",
  "sourcePath": "/home/ggr/blockchain/VolcanoToken/contracts/VolcanoToken.sol",
  "compiler": {
    "name": "solc",
    "version": "0.8.4+commit.c7e474f2.Emscripten.clang"
  },
  "schemaVersion": "3.3.4",
  "updatedAt": "2021-09-07T13:00:03.276Z",
  "networkType": "ethereum",
  "devdoc": {
    "kind": "dev",
    "methods": {
      "approve(address,uint256)": {
        "details": "See {IERC721-approve}."
      },
      "balanceOf(address)": {
        "details": "See {IERC721-balanceOf}."
      },
      "getApproved(uint256)": {
        "details": "See {IERC721-getApproved}."
      },
      "isApprovedForAll(address,address)": {
        "details": "See {IERC721-isApprovedForAll}."
      },
      "name()": {
        "details": "See {IERC721Metadata-name}."
      },
      "owner()": {
        "details": "Returns the address of the current owner."
      },
      "ownerOf(uint256)": {
        "details": "See {IERC721-ownerOf}."
      },
      "renounceOwnership()": {
        "details": "Leaves the contract without owner. It will not be possible to call `onlyOwner` functions anymore. Can only be called by the current owner. NOTE: Renouncing ownership will leave the contract without an owner, thereby removing any functionality that is only available to the owner."
      },
      "safeTransferFrom(address,address,uint256)": {
        "details": "See {IERC721-safeTransferFrom}."
      },
      "safeTransferFrom(address,address,uint256,bytes)": {
        "details": "See {IERC721-safeTransferFrom}."
      },
      "setApprovalForAll(address,bool)": {
        "details": "See {IERC721-setApprovalForAll}."
      },
      "supportsInterface(bytes4)": {
        "details": "See {IERC165-supportsInterface}."
      },
      "symbol()": {
        "details": "See {IERC721Metadata-symbol}."
      },
      "tokenURI(uint256)": {
        "details": "See {IERC721Metadata-tokenURI}."
      },
      "transferFrom(address,address,uint256)": {
        "details": "See {IERC721-transferFrom}."
      },
      "transferOwnership(address)": {
        "details": "Transfers ownership of the contract to a new account (`newOwner`). Can only be called by the current owner."
      }
    },
    "version": 1
  },
  "userdoc": {
    "kind": "user",
    "methods": {},
    "version": 1
  }
}